:020000040800F2
:10000000B8110020A501000877140008811300082A
:1000100075140008350200083918000800000000B7
:1000200000000000000000000000000001010008C6
:10003000370200080000000045010008F315000821
:10004000BF010008BF010008BF010008BF01000890
:10005000BF010008BF010008BF010008BF01000880
:10006000BF010008BF010008BF010008BF01000870
:10007000BF010008BF010008BF010008BF01000860
:10008000BF010008BF010008BF010008BF01000850
:10009000BF010008BF010008BF010008BF01000840
:1000A000BF010008BF010008BF010008BF01000830
:1000B000BF010008BF010008BF010008BF01000820
:1000C000BF010008BF010008BF010008BF01000810
:1000D000BF010008BF010008BF010008BF01000800
:1000E000BF010008BF010008BF010008DFF80CD005
:1000F00000F08EF80048004759180008B811002099
:10010000204B19680868B0E8F00F80F30988BFF346
:100110006F8F4FF0000080F311884EF00D0E704786
:100120000000000006480068006880F3088862B696
:1001300061B6BFF34F8FBFF36F8F00DF00BF00BF0B
:1001400008ED00E0EFF30980BFF36F8F0D4B1A68E5
:1001500020E9F00F106008B54FF0500080F31188CF
:1001600001F01EFE4FF0000080F31188BDE808404A
:1001700019680868B0E8F00F80F30988BFF36F8F43
:10018000704700BF10000020EFF311804FF05001C6
:1001900081F31188704780F311887047EFF3058071
:1001A000704700000648804706480047FEE7FEE724
:1001B000FEE7FEE7FEE7FEE7FEE7FEE7FEE7FEE717
:1001C00081160008ED00000840EA01039B0703D0F8
:1001D00009E008C9121F08C0042AFAD203E011F886
:1001E000013B00F8013B521EF9D27047D2B201E048
:1001F00000F8012B491EFBD270470022F6E710B52C
:1002000013460A4604461946FFF7F0FF204610BD84
:10021000064C074D06E0E06840F0010394E8070053
:1002200098471034AC42F6D3FFF764FFD82100089A
:10023000F8210008FEE7704710B5040002D060798D
:1002400010B106E0012010BD00202071204600F012
:1002500005F801206071002010BD000008B500689D
:100260000649884208D10648416941F04001416190
:10027000406900F04000009008BD000000300240DE
:100280000010024031B500F0EDF8044600F0EAF845
:100290000099001B8842F9D338BD00002DE9F84FC2
:1002A000DFF890A100220AF1040B144601274FF059
:1002B0000F090BF1040E00BF0B6807FA04F52B4081
:1002C000AB4274D1DFF870C14E68A6EB0C086645EE
:1002D0002BD00DDC032E34D005DC36B3012E19D023
:1002E000022E2FD11BE0112E16D0122E2AD119E08A
:1002F000B8F5881F19D006DCB8F5803F15D0B8F5E1
:10030000801F1FD111E0B8F5001F0ED0B8F5041FF3
:1003100018D10AE0CA6815E0CA68121D12E0CA685E
:1003200008320FE0CA680C320CE08A682AB1012A50
:100330004FF0080203D0456104E0042202E00561A9
:1003400000E00022FF2B01D8064601E000F1040680
:100350004FEA840501D9A5F12005D6F800C009FAB5
:1003600005F82CEA080C02FA05F54CEA050CC6F86B
:1003700000C04D68ED0057D5304DAE6946F001061E
:10038000AE61AD6924F0030605F0010500952C4D22
:1003900006EB050CDCF80850A6074FEA167809FAB8
:1003A00008F6B543274EB04202D1002610E03BE0EC
:1003B000254EB04201D101260AE0244EB04201D1BF
:1003C000022605E0224EB04201D1032600E00426B9
:1003D00006FA08F62E43CCF808604D68DAF800609B
:1003E000ED03554601D51E4300E09E432E604D6847
:1003F000DBF80060AD035D4601D51E4300E09E437F
:100400002E604D68DEF80060ED02754601D51E4392
:1004100000E09E432E604D68AD020E4D2E6801D562
:100420001E4300E09E432E60641C102CFFF444AF7A
:10043000BDE8F88F000401400000111000100240D8
:100440000000014000080140000C01400010014084
:10045000001401400C0401400AB101617047090415
:10046000FBE7000001480068704700000000002022
:1004700002480168491C016070470000000000202C
:10048000074810B5016841F010010160032000F039
:100490007BF80F2000F006F800F016F8002010BDE1
:1004A0000020024010B5044600F05EFA4FF47A7165
:1004B000B0FBF1F000F0F5FE00222146501E00F0E6
:1004C00043F8002010BD00001D4808B5816941F0C7
:1004D00001018161806900F001000090032000F0BB
:1004E00053F8002211466FF00B0000F02DF80022A7
:1004F00011466FF00A0000F027F8002211466FF055
:10050000090000F021F800221146501F00F01CF8ED
:1005100000221146101F00F017F800220F21901E34
:1005200000F012F800220F21501E00F00DF80548CF
:10053000416821F0E06141F00071416008BD0000B8
:100540000010024000000140F0B40E4B1B680C4646
:10055000C3F30223C3F10705042D00D90425191D97
:10056000072901D2002300E0DB1E012606FA05F16F
:10057000491E214099409E40761E16403143F0BCF2
:1005800000F07ABF0CED00E0064900F007020868B1
:100590004FF6FF03184040EA0220034A1043086068
:1005A000704700000CED00E00000FA050120010298
:1005B00091FAA1F1024AB1FA81F142F821007047A3
:1005C00000000E4210B533A401461DCC86B08DE864
:1005D0001D0034A0344C006804900020012931D063
:1005E000022948D010292BD161682268D20127D571
:1005F0004FF4701292FAA2F201F47010B2FA82F281
:10060000D040C9031DF8000010D561684FF40032D6
:1006100092FAA2F201F40031B2FA82F2D14004AAB5
:10062000515C224AB2FBF1F1484301E020494843C2
:100630006168490204D440005FF00301B0FBF1F0AF
:1006400006B010BD226AC2F30121012903D192072D
:1006500001D5C803F4E7022905D1626A920702D5E1
:1006600049F64040ECE70329EAD121688903E7D540
:100670004FF22440E4E700F095F961684FF48042BE
:1006800092FAA2F201F44041B2FA82F2D140491C3E
:100690004900D3E702030405060708090A0B0C0DFD
:1006A0000E0F1010010200000010024000127A002C
:1006B00000093D002DE9F84305460078454CC00788
:1006C00074D0E06940F08050E061E069424E00F093
:1006D00080500090306840F480703060FFF7C2FEB8
:1006E000074604E0FFF7BEFEC01B642833D830681D
:1006F000C005F7D5206A10F4407051D0A98801F4E4
:10070000407181424CD0206A0126310491FAA1F255
:10071000B2FA82F29300314A20F440701344C3F8D5
:10072000006491FAA1F1B1FA81F102EB8101002399
:10073000C1F800342062C00732D0FFF793FE0746AD
:1007400041F288394FF0020808E000BFFFF78AFE47
:10075000C11B494502D90320BDE8F88398FAA8F1E6
:10076000B1FA81F141F040014046B6EB511F01D191
:1007700021680BE090FAA0F1B1FA81F141F040015B
:10078000B0EB511F01D1216A00E0616A98FAA8F02C
:10079000B0FA80F000F01F0206FA02F00142D5D054
:1007A000206A696820F44070084320622878800736
:1007B00005D56068A96820F4404008436060287847
:1007C000C00605D56068E96820F4800008436060D1
:1007D0000020C1E7001002400070004000004242CB
:1007E0002DE9F047DFF8708105460E46D8F8000085
:1007F00000F00700B0420CD2D8F8001021F0070139
:100800003143C8F80010D8F8000000F00700B042EB
:1008100077D12878514C800705D56068A96820F009
:10082000F000084360602878C00759D0696801204B
:1008300001290DD0022929D05FF0020393FAA3F217
:10084000B2FA82F242F02002520904D0226803E098
:100850004FF40033F2E7626A93FAA3F3B3FA83F337
:1008600003F01F03984002424BD0606820F0030061
:1008700008436060FFF7F6FD6968074641F288307B
:1008800001290DD00229814617D025E04FF00073D1
:10089000D4E700BFFFF7E6FDC11B494501D918E0C9
:1008A00081466068C0F381000128F3D118E000BFE1
:1008B000FFF7D8FDC11B49450BD86068C0F3810024
:1008C0000228F5D10CE000BFFFF7CCFDC11B494564
:1008D00002D90320BDE8F087606810F00C0FF3D157
:1008E000D8F80010404601F00701B1420BD9016869
:1008F00021F0070131430160006800F00700B042B9
:1009000001D00120E6E72878400705D56068E9684E
:1009100020F4E060084360602878000706D560682E
:10092000296920F4605040EAC100606000F052F88C
:100930006168F02292FAA2F201F0F001B2FA82F2BA
:10094000D140074A515CC840064908600F20FFF7B4
:10095000A9FD0020BEE70000002002400010024078
:10096000B42100086C0000200148006870470000B6
:100970006C00002008480949006849684FF4E062AB
:1009800092FAA2F201F4E061B2FA82F2D140044A92
:10099000515CC840704700006C000020001002400D
:1009A000C421000808480949006849684FF46052AA
:1009B00092FAA2F201F46051B2FA82F2D140044AF2
:1009C000515CC840704700006C00002000100240DD
:1009D000C421000810B519A385B00FCB8DE80F0016
:1009E0001AA01B4B006804905A681A4802F00C01C8
:1009F00004291DD008291BD14FF4701494FAA4F4D3
:100A000002F47011B4FA84F4E140D2031DF801102D
:100A100010D55A684FF4003393FAA3F302F400326E
:100A2000B3FA83F3DA4004AB9A5CB0FBF2F04843CC
:100A300005B010BD08484843FAE70000020304056A
:100A4000060708090A0B0C0D0E0F1010010200001A
:100A50000010024000127A0000093D002DE9F84F15
:100A600004460078F74DC0074FF0010625D06868AE
:100A70007704C0F38100012807D06868C0F38100C3
:100A800002281BD16868C00318D597FAA7F0B0FAFE
:100A900080F040F02000400901D0286800E0686A3A
:100AA00097FAA7F1B1FA81F101F01F0106FA01F1FD
:100AB00008425ED0606800287CD05AE06068B0F5DB
:100AC000803F0BD010B1B0F5A02F11D0286820F4D2
:100AD00080302860286820F4802002E0286840F4F4
:100AE00080302860606828B3FFF7BCFC80460BE0CC
:100AF000286840F480202860F0E700BFFFF7B2FCD0
:100B0000A0EB0800642871D897FAA7F0B0FA80F03B
:100B100040F02000400901D0286800E0686A97FA98
:100B2000A7F1B1FA81F101F01F0106FA01F10842C3
:100B3000E4D01EE0FFF796FC804605E0FFF792FC4C
:100B4000A0EB08006428DED897FAA7F0B0FA80F08E
:100B500040F02000400901D0286800E0686A97FA58
:100B6000A7F1B1FA81F101F01F0106FA01F1084283
:100B7000E4D12078DFF8D08280074FF000094FF0F1
:100B800002075BD568684FF0F80B10F00C0F07D028
:100B90006868C0F3810002281CD16868C00319D4BA
:100BA00097FAA7F0B0FA80F040F02000400902D098
:100BB000286801E08BE0686A97FAA7F1B1FA81F141
:100BC00001F01F0106FA01F108422CD0206901282A
:100BD0007DD128E0206990B396FAA6F0B0FA80F0B3
:100BE00048F82060FFF73EFC824607E011E100BFB5
:100BF000FFF738FCA0EB0A00022884D897FAA7F088
:100C0000B0FA80F040F02000400901D0286800E0F0
:100C1000686A97FAA7F1B1FA81F101F01F0106FAAB
:100C200001F10842E4D028689BFAABF26169B2FA9C
:100C300082F220F0F80091400843286025E0FFE7A9
:100C400096FAA6F1B1FA81F148F82190FFF70AFC73
:100C5000824605E0FFF706FCA0EB0A000228CCD88C
:100C600097FAA7F0B0FA80F040F02000400901D0D8
:100C7000286800E0686A97FAA7F1B1FA81F101F0FB
:100C80001F0106FA01F10842E4D1207800076ED571
:100C9000A069B8B396FAA6F0B0FA80F008EB80002D
:100CA000C0F88064FFF7DEFB824605E0FFF7DAFB61
:100CB000A0EB0A000228A0D897FAA7F0B0FA80F0BB
:100CC00040F06000B6EB501F02D128680CE062E1F2
:100CD00097FAA7F0B0FA80F040F06000B7EB501F31
:100CE00001D1286A00E0686A97FAA7F1B1FA81F1A8
:100CF00001F01F0106FA01F21042D7D00120FFF7E0
:100D0000C1FA34E0FFE796FAA6F1B1FA81F108EBF7
:100D10008101C1F88094FFF7A5FB824606E000BF81
:100D2000FFF7A0FBA0EB0A00022872D897FAA7F001
:100D3000B0FA80F040F06000B6EB501F01D1286897
:100D40000BE097FAA7F0B0FA80F040F06000B7EB44
:100D5000501F01D1286A00E0686A97FAA7F1B1FA3A
:100D600081F101F01F0106FA01F21042D8D120787A
:100D7000400765D5E86940F08050E861E869DFF830
:100D8000CCB000F080500090DBF8001041F480718E
:100D9000CBF80010FFF766FB824605E0FFF762FB29
:100DA000A0EB0A00642834D8DBF80000C005F5D5B4
:100DB000E06801280AD008B1052813D0286A20F07D
:100DC00001002862286A20F0040002E0286A40F04E
:100DD00001002862E06841F2883B90B3FFF742FBD4
:100DE00082460BE0286A40F004002862EEE700BF6C
:100DF000FFF738FBA0EB0A0159450AD897FAA7F08C
:100E0000B0FA80F040F04000B6EB501F02D12868E5
:100E10000CE0A3E097FAA7F0B0FA80F040F04000B1
:100E2000B7EB501F01D1286A00E0686A97FAA7F172
:100E3000B1FA81F101F01F0206FA02F10842D7D09F
:100E400031E005E000100240000042420070004026
:100E5000FFF708FB824605E0FFF704FBA0EB0A0161
:100E600059457BD897FAA7F0B0FA80F040F04000DF
:100E7000B6EB501F01D128680BE097FAA7F0B0FA43
:100E800080F040F04000B7EB501F01D1286A00E02D
:100E9000686A97FAA7F1B1FA81F101F01F0206FA28
:100EA00002F10842D8D1E06980B36968C1F38101D9
:100EB000022970D04FF080714F000228484609D0B7
:100EC00091FAA1F1B1FA81F148F82100FFF7CAFACD
:100ED000044669E08A4691FAA1F1B1FA81F1C1466E
:100EE00048F82100FFF7BEFA804605E0FFF7BAFA9E
:100EF000A0EB0800022854D897FAA7F0B0FA80F0C7
:100F000040F02000400902D0286801E061E0686AF2
:100F100097FAA7F1B1FA81F101F01F0106FA01F188
:100F20000842E3D1206AB0F5803F05D16868A16826
:100F300020F4003008436860D4E908010843696878
:100F400021F47411084368609AFAAAF0B0FA80F0AC
:100F500049F82060FFF786FA044606E021E000BF6A
:100F6000FFF780FA001B02281BD897FAA7F0B0FA07
:100F700080F040F02000400901D0286800E0686A55
:100F800097FAA7F1B1FA81F101F01F0106FA01F118
:100F90000842E5D01DE01EE0FFF764FA001B0228BE
:100FA00002D90320BDE8F88F97FAA7F0B0FA80F0D5
:100FB00040F02000400901D0286800E0686A97FAF4
:100FC000A7F1B1FA81F101F01F0106FA01F108421F
:100FD000E2D10020E6E70120E4E70000024850F8F3
:100FE000210080B270470000006C0040024800EB16
:100FF000810091B201607047006C004070B5040040
:1010000003D0607C002610B105E0012070BD26747D
:10101000204600F043F802206074204600F018F9E2
:10102000042578BB204600F040FA58BB2068416890
:1010300021F007014160A06820B11748016821F044
:10104000010101601448001F0168A26821F4607169
:10105000114301606068411C04D10120FFF7B2FA1E
:1010600080B1401E21688A6822F00F0242EA1042D5
:101070008A602168CA6860F30F02CA60204600F0E7
:101080002FFA08B16574C0E7E67301206073A0739E
:101090006074002070BD0000306C004008B500682E
:1010A0000C49884215D1FFF781FA0B48C16941F01C
:1010B0000061C161C069094A00F000600090012030
:1010C000C10391FAA1F1B1FA81F102EB8101C1F8FA
:1010D000000408BD00280040001002400000424209
:1010E0002DE9F0410D4604003BD0C5B3207C01281A
:1010F0003AD04FF0010884F8108002206074E8783C
:1011000072B300F0C9F9E073687800F0C5F9607354
:10111000A87800F0C1F9A073C2B2617BE07B00F057
:1011200011FA20732870204600F0FCF94FF4616139
:10113000B0FBF1F1002518292DD91822B1FBF2F1ED
:10114000A1EB011101EB4101C1EB011100EBC11653
:101150003146204600F035FA0427C8B90BE000E01C
:1011600004E00120BDE8F0810220FBE7E07368782D
:101170006073A878CFE7204600F0CDF9411C0AD073
:10118000B04208D206490144204600F006FA10B1E8
:1011900067742574E5E784F8118025740020E1E781
:1011A000805101002DE9F0410D46040024D01DB30B
:1011B000207C012823D04FF0010884F81080022001
:1011C00060742878EAB100F067F94FF4616100FBC0
:1011D00001F6687800F060F9C0EB001006EB8006BD
:1011E000A87800F059F935182946204600F0E9F9A9
:1011F0000026042710BB0FE00120BDE8F08102208B
:10120000FBE74FF4616148436978C1EB011100EBE2
:101210008100A9784518E7E72068416821F00501B9
:101220004160204600F077F9411C0AD0A84208D25C
:1012300006490144204600F0B0F910B167742674E5
:10124000DAE784F8118026740020D6E78051010087
:1012500070B504000AD02068416821F0080141609F
:10126000FFF700F905464FF47A7608E0012070BDDB
:10127000FFF7F8F8401BB04201D9032070BD206889
:1012800040680007F4D5002070BD4FF0E02104282D
:10129000086903D020F004000861704740F00400A2
:1012A000FAE710B5401EB0F1807F01D3012010BDD8
:1012B0004FF0E02460610F21601700F0DDF800209E
:1012C000A06107202061002010BD70B5040004D08B
:1012D00094F83900002510B106E0012070BD84F8B3
:1012E0003850204600F020F8022084F839002068A9
:1012F000C16821F40051C160204600F0E5F9206882
:10130000016921F4904101612068416921F02A01BD
:1013100041612068C16841F40051C160E56301206A
:1013200084F83900002070BD10B50068114986B0FE
:1013300088421DD11048816941F4804181618069F2
:101340000E4C00F4804004904FF400700090022096
:1013500001900320039069462046FEF79FFF00217D
:101360002015CDE90001029169462046FEF796FF5F
:1013700006B010BD003801400010024000080140D6
:10138000FEE7000030B51A4885B0816941F01001D0
:101390008161816901F010010491816941F02001AE
:1013A0008161816901F020010491816941F00401AA
:1013B0008161816901F004010491816941F00801B2
:1013C000816180690B4D00F008004FF400540490D7
:1013D000002221462846FFF73FF80120CDE90040D2
:1013E0000220039069462846FEF758FF05B030BD3D
:1013F00000100240001001407CB51D481B490160EF
:101400004FF0FF3141604FF480718160FFF7F6FDCE
:1014100000B1FEE701211648FFF7E0FD43F2F22696
:10142000B04222D001248DF8044000258DF80550EB
:101430008DF80650224601A90D48FFF7B3FE00B112
:10144000FEE78DF800408DF801408DF802408DF8E0
:101450000350012269460648FFF742FE00B1FEE74D
:10146000324601210248FFF7C1FD7CBD0028004043
:10147000600D0020FEE770470907090E002806DA14
:1014800000F00F0000F1E02080F8141D704700F11B
:10149000E02080F800147047010901EB810100F0A1
:1014A0000F0000EB4100C0B2704770B50446FEF774
:1014B000D9FF05464FF47A7606E0FEF7D3FF401BCE
:1014C000B04201D9032070BD206840688006F4D581
:1014D0002068416841F010014160002070BD0000AB
:1014E00070B504460068416821F010014160FEF7C4
:1014F000B9FF05464FF47A7607E000BFFEF7B2FF6A
:10150000401BB04201D9032070BD206840688006AE
:10151000F4D5002070BD0168086A496A89B241EAC1
:1015200000407047006881698AB2C1698BB28169E5
:1015300089B28A4203D0C06961F31F40704743EA11
:1015400002407047F0B56424C1EBC1030927A50030
:10155000072603EB01130329B3FBF7F100F5FA604B
:10156000114401440AD2401EB0FBF4F201EB900199
:10157000B0FBF5F0891A0844001D08E0B0FBF4F256
:1015800001EB9001B0FBF5F0891A0844801CB0FB18
:10159000F6F106FB1100C0B2F0BD70B50D4606466F
:1015A0000024FFF782FF48B93168280C08623168CF
:1015B000A8B248623046FFF793FF00B101242046ED
:1015C00070BD70B50D4606460024FFF76EFF48B9A2
:1015D0003168280C88613168A8B2C8613046FFF7CD
:1015E0007FFF00B10124204670BD012000F076F994
:1015F000FBE710B5FEF73CFFBDE8104000F07AB9FC
:1016000070B594B00124052000250090CDE9025466
:101610004FF48030019002260494CDE907604FF426
:10162000E01009906846FFF719FA00B1FEE70F20B5
:10163000CDE90A064FF48060CDE90C5002210AA8DA
:101640000E95FFF7CDF800B1FEE74FF48070CDE9BD
:101650000F400FA8FFF72EF800B1FEE7FFF784F95F
:101660004FF47A71B0FBF1F0FFF71BFE0420FFF797
:101670000CFE00220F21501EFEF766FF14B070BD55
:101680000D48016841F00101016041680B4A1140B9
:10169000416001680A4A11400160016821F480211B
:1016A0000160416821F4FE0141604FF41F01816037
:1016B0000449C00308607047001002400000FFF8B2
:1016C000FFFFF6FE08ED00E02DE9F041044600685A
:1016D0000169E26821F44051114301612169A06868
:1016E0000843616908432168CA6841F20C639A4360
:1016F0000243CA6020684169A26921F44071114324
:1017000041614C4920686425322688423CD1FFF76C
:1017100049F900EBC00101EB001061688900B0FBE2
:10172000F1F7FFF73FF900EBC00101EB0010616832
:10173000B0468900B0FBF1F0B0FBF5F06FF0180196
:10174000484307EB800106EB0110B0FBF5F000F019
:10175000F006FFF727F900EBC00101EB001061680C
:101760008900B0FBF1F0B0FBF5F006EB0016FFF7D7
:1017700019F900EBC00101EB001061688900B0FBB2
:10178000F1F7FFF70FF93BE0FFF7F4F800EBC001CA
:1017900001EB001061688900B0FBF1F7FFF7EAF890
:1017A00000EBC00101EB00106168B0468900B0FB9E
:1017B000F1F0B0FBF5F06FF01801484307EB800142
:1017C00006EB0110B0FBF5F000F0F006FFF7D2F8E1
:1017D00000EBC00101EB001061688900B0FBF1F083
:1017E000B0FBF5F006EB0016FFF7C4F800EBC00104
:1017F00001EB001061688900B0FBF1F7FFF7BAF860
:1018000000EBC00101EB001061688900B0FBF1F052
:10181000B0FBF5F06FF01801484307EB800108EBCF
:101820000110B0FBF5F0216800F00F003044886033
:10183000BDE8F08100380140FEE702E008C8121F51
:1018400008C1002AFAD170477047002001E001C1A9
:10185000121F002AFBD1704786B0FEF711FEFFF77A
:10186000CFFEFFF78FFDFFF7C7FD154813490C2288
:1018700001604FF4E131416000218160C160C0E945
:1018800004128161C161FFF720FD00B1FEE70E493E
:101890000C4808600846FEF7CFFC00B1FEE71422B2
:1018A0000A496846FEF790FC0021684600F02CF8D3
:1018B0000549091F086000F018F8FEE700380140EC
:1018C000740D00200030024064000020A0210008B8
:1018D00001460020842900D0C81C704710B500B90B
:1018E000012000F003FA002010BD10B500F026FA28
:1018F000002010BD10B500F08FFB012803D0BDE81B
:10190000104000F0B1BA10BD30B5044685B00D46A8
:10191000B0F90800FFF7DCFF002104AA0090CDE930
:1019200001210391208A2B4682B2D4E9001000F0F5
:10193000ADFA012802D0002005B030BD0498FBE7C5
:1019400070B50B4C054620684560E068216885420B
:1019500005D2606BBDE87040091D00F037B9206BFF
:10196000091D00F033F9A06A854200D2A56270BD5E
:101970001000002070B5124E124C1AE000F008FA68
:101980003068D0B100F0B6FB00F044F9F068C568EB
:10199000281D00F0FBF8A068401EA0606068401E93
:1019A000606000F051F9286B00F060F9284600F003
:1019B0005DF960680028E1D170BD00F09BFBF8E79D
:1019C000380100201000002010484FF44061420709
:1019D00006D0C01D0D4920F00700411AC1F5406135
:1019E0000B4A00230144C2E900030839103A21F0F0
:1019F000070111604B600B600B1AC0E90013936084
:101A00004FF000405360D06070470000600100203C
:101A100058000020044C00BFFFF7ACFF20680128ED
:101A2000FAD900F057F9F7E77000002030B51149F6
:101A300000E011460A688242FBD34B685C1884427E
:101A400003D1406818444860084643681C18944213
:101A500009D1084C103C2468A24209D052681A44AB
:101A600042600A6812680260814200D0086030BD9E
:101A70000460F9E7580000200648016B096829B1A5
:101A8000016BC968C9684968816270474FF0FF31CE
:101A9000FAE700001000002004484068401C02D013
:101AA000FEF772FBFEE7FEF76FFBFEE70400002087
:101AB0002DE9F0410546002700F06AF92A4E30680A
:101AC00008B9FFF781FFF068054242D1F5B3083548
:101AD000680709D005F00700C0F108000544680751
:101AE00002D0FEF751FBFEE785B37068854230D81F
:101AF0001D48103001460C6801E020460C46616824
:101B0000A94202D221680029F7D131688C4220D045
:101B100007682168016060680837411B102909D9EE
:101B20006019420702D0FEF72FFBFEE741606560B7
:101B3000FFF77CFF61687068401A7060B26890427D
:101B400000D2B060F0680143002000E001E0C4E989
:101B5000000100F0CFFA780702D0FEF715FBFEE790
:101B60003846BDE8F08100004800002010B5031F92
:101B70004FF080741C601B1F1960191F024B0B6013
:101B8000143940380A6010BD991A0008D0E90132B2
:101B900001699A60D0E901235A604A68824201D102
:101BA00082684A60002202610868401E086070472F
:101BB00000F108014FF0FF32C0E90112C16001617C
:101BC00000210160704700210161704730B50B684A
:101BD0005A1C02D000F1080202E0026904E0224629
:101BE000546825689D42FAD953684B6099608A60B1
:101BF000516008610168491C016030BD42684A605B
:101C000093688B6093685960916008610168491C12
:101C10000160704710B5FEF7B7FA09484168491CE2
:101C2000BFF34F8FBFF36F8F4160012907D1054884
:101C3000006810F0FF0F02D0FEF7A6FAFEE710BD15
:101C40000400002004ED00E0074910B5486830B1F9
:101C5000401E486006D1BDE81040FEF79CBAFEF772
:101C600093FAFEE710BD00000400002070B50028C4
:101C70001DD00F4DA0F108046068E968084202D148
:101C8000FEF782FAFEE7226812B1FEF77DFAFEE760
:101C90008843606000F07CF86068696808446860A8
:101CA0002046FFF7C3FEBDE8704000F023BA70BDC8
:101CB0004800002006484FF47A710068B0FBF1F14B
:101CC0004FF0E020491E416107210161704700008B
:101CD0006C00002004494FF080500860BFF34F8F24
:101CE000BFF36F8F7047000004ED00E070B5020095
:101CF0001DD0114CE06A10B1FEF746FAFEE700F085
:101D000047F8E06885182068001DFFF73FFF38B9E5
:101D1000206890F82C1001208840216981432161BE
:101D20002846FFF70DFE00F0E5F9002803D1BDE8D5
:101D30007040FFF7CFBF70BD100000201FB500241A
:101D4000009401940294234680220DA10E4803942E
:101D500000F09CF8012804D000280FD1FEF714FAF7
:101D6000FEE7FEF711FA09484FF0FF3181620121C9
:101D70004161C460BDE81F4000F03CB81FBD0000D9
:101D800049444C4500000000151A000810000020CE
:101D90000248C16A491CC16270470000100000205F
:101DA000124810B5C16A11B10121C16110BD0021F5
:101DB000C16101690E4AB1FA81F1C1F11F0101EB64
:101DC000810152F821306BB102EB810101F108036E
:101DD0004A6852684A609A4201D152684A60D168A2
:101DE000016010BDFEF7D0F9FEE7000010000020F2
:101DF000700000201CB5194908780190FF20087078
:101E000008788DF800009DF80000154A00F0500099
:101E100010700720906005E09DF800305B008DF8A1
:101E20000030401E9DF800301B06F5D4000200F47F
:101E3000E0609060019808700A48016841F4700100
:101E40000160016841F070410160FFF733FF00203D
:101E50005060FEF767F900201CBD000000E400E0C0
:101E60000400002020ED00E010B5FEF78DF900F031
:101E7000E1F818B104494FF080500860BDE8104007
:101E80000020FEF788B9000004ED00E02DE9FF5FB7
:101E90005FEA000BDDE90F900E9E15468A4604D0DE
:101EA000072E05D3FEF770F9FEE7FEF76DF9FEE7A2
:101EB000A900884610B90846FFF7FAFD070019D0B7
:101EC0005C20FFF7F5FD0400384611D0A5224146FD
:101ED0002063FEF78BF96FF00301206B01EB8501A6
:101EE000084420F00707780707D0FEF74DF9FEE712
:101EF000FFF7BCFE4FF0FF3486E051463546002028
:101F000022180B5C82F834300A5C12B1401C102895
:101F1000F6D3002084F84300072D00D30625E562A0
:101F2000C4E913508046201DFFF74DFE04F1180050
:101F3000FFF749FE2461C5F107016462A161C4F89D
:101F4000548084F8588059463846039AFFF70EFEAD
:101F50002060B9F1000F01D0C9F80040FFF75AFE28
:101F60002B4DA868401CA8602868DFF8A88010B135
:101F7000686940B32CE02C60A868012828D10027AC
:101F800007EB870108EB8100FFF712FE7F1C072F8C
:101F9000F6D320488C30FFF70BFE1E48A030FFF729
:101FA00007FE1C48B430FFF703FE1A48C830FFF79D
:101FB000FFFD1848DC30FFF7FBFD16488C30286326
:101FC0001430686304E02868C06AB04200D82C600E
:101FD000686A401C68626064E16A01202A6988407E
:101FE0001043286101EB810108EB8100211DFFF7FF
:101FF00005FE0124FFF728FE686928B12868C06A39
:10200000B04201D2FFF766FE04B02046BDE8F09F63
:1020100010000020700000200548416919B1C06A15
:1020200018B100207047012070470220704700005F
:10203000100000202DE9F0412C4C0026E06A40B150
:10204000A069401CA061E06900B101263046BDE8EE
:10205000F081E068401CE060E76877B9206B0068B9
:1020600010B1FEF791F8FEE7206B616B21636063AE
:10207000206A401C2062FFF7FFFCA06ADFF8708036
:10208000874209D3206B006880B1206BC068C568A7
:10209000686887420DD2A0622068C06A00EB8001A8
:1020A00058F821000128CED90126CCE74FF0FF30A7
:1020B000F1E7281DFFF76AFDA86A18B105F11800BD
:1020C000FFF764FDE96A012022698840104320611E
:1020D00001EB810108EB8100291DFFF78FFDE86A04
:1020E0002168C96A8842CDD30126CBE710000020C1
:1020F000700000202DE9F047274C0026E06A38B137
:10210000FFF788FDE06A401EE062E06A18B13DE03A
:10211000FEF73AF8FEE7A168204D012079B3A5F15A
:10212000B40980462868E8B1E868C76807F1180074
:10213000FFF72CFD381DFFF729FDF96A226908FA1F
:1021400001F01043206101EB810109EB8100391D91
:10215000FFF754FDF86A2168C96A8842E2D3C4F8DF
:102160001C80DFE7A06958B14546A06940B1FFF780
:1021700061FF00B1E561A069401EA061F5E705E0DF
:10218000E069012802D10126FFF7A4FDFFF75CFDFD
:102190003046BDE8F0870000100000202401002038
:1021A000CC210008EB150008000000000000000032
:1021B0008000000000000000000000000102030495
:1021C0000607080900000000010203046465666157
:1021D000756C745461736B00F821000800000020D6
:1021E000700000003A180008682200087000002003
:1021F000481100004A18000800000000000000001C
:10220000AAAAAAAA00000000000000000000000026
:1022100000000000000000000000000000000000BE
:1022200000000000000000000000000000000000AE
:10223000000000000000000000000000000000009E
:10224000000000000000000000000000000000008E
:10225000000000000000000000000000000000007E
:082260000000000000A24A0486
:04000005080000ED02
:00000001FF
